:100000000C9401040C9453040C9453040C94530466
:100010000C9453040C9453040C9453040C94530404
:100020000C9453040C9453040C941B2F0C94ED2F3C
:100030000C944D2A0C9453040C9453040C945304C4
:100040000C9453040C9453040C9453040C945304D4
:100050000C9453040C94A62A0C9453040C9453044B
:100060000C9453040C9453040C9453040C945304B4
:100070000C9453040C9453040C9453040C945304A4
:100080000C9453040C9453040C9453040C94530494
:100090000C9453040C9453040C9453040C94530484
:1000A0000C9453040C9453040C94530442204220A7
:1000B00074207420C120F521F521F521DF20742161
:1000C00085218521E521F521F521EE21912291223D
:1000D000A322A3229A22A322A322A3229122912225
:1000E0009F22A322A3229F225A308130793181306E
:1000F0007931CD30F0307931473156310000000090
:1001000000000000040005000600070008000900C8
:100110000A000B000C000D000E000F001000110073
:100120001200130014001500160017001800190023
:100130001A001B001C001D001E001F0020002100D3
:100140002200230024002500260027002800290083
:100150002A002B002C412D002E002F0030003100F2
:100160003200330034003500360037003800296192
:100170003A003B003C003D003E003F004000410093
:100180004200430044004500460047004800490043
:100190004A004B424C004D004E004F0050005100B1
:1001A00052005300540055005600570058005900A3
:1001B0005A005B005C005D005E005F006000610053
:1001C0006200630064006500A500670068006900C4
:1001D0006A006B006C006D006E006F0070007100B3
:1001E0007200730074007500760077007800790063
:1001F0007A007B007C007D007E00A800A900AA0098
:1002000000000000000085000000870088008900D1
:100210008A008B00000000000000000090009100A8
:1002200000000000000000000000000000000000CE
:1002300000000000000000000000000000000000BE
:1002400000000000000000000000000000000000AE
:10025000000000000000000000000000000000009E
:10026000000000000000000000000000000000008E
:10027000000000000000000000000000000000007E
:10028000000000000000000000000000000000006E
:10029000000000000000000000000000000000005E
:1002A000000000000000000000000000000000004E
:1002B000000000000000000000000000E000D75C2B
:1002C000E200E300E400D85CE600E7000000000084
:1002D000000000000000000000000000000000001E
:1002E000000000000000000000000000000000000E
:1002F00000000000000000000000000000000000FE
:1003000000000000FC0001000100F100F000F3001B
:10031000FA0050004B00510052004F000100010054
:100320004D004600FB00F500F200F9004E00010010
:10033000F40001004A000100010001000100010079
:1003400001000100010001000100010001000100A5
:100350000100010001000100010001000100010095
:100360000100010001000100010001000100010085
:100370000100010001000100010001000100010075
:100380000100010001000100010001000100010065
:100390000100010001000100010001000100010055
:1003A0000100010001000100010001000100010045
:1003B0000100010001000100010001000100010035
:1003C0000100010001000100010001000100010025
:1003D0000100010001000100010001000100010015
:1003E0000100010001000100010001000100010005
:1003F00001000100010001000100010001000100F5
:1004000000000000000001000000010001000100E8
:1004100001000100000000000000000001000100D8
:1004200000000000000000000000000000000000CC
:1004300000000000000000000000000000000000BC
:1004400000000000000000000000000000000000AC
:10045000000000000000000000000000000000009C
:10046000000000000000000000000000000000008C
:10047000000000000000000000000000000000007C
:10048000000000000000000000000000000000006C
:10049000000000000000000000000000000000005C
:1004A000000000000000000000000000000000004C
:1004B000000000000000000000000000010001003A
:1004C0000100010001000100010001000000000026
:1004D000000000000000000000000000000000001C
:1004E000000000000000000000000000000000000C
:1004F00000000000000000000000000000000000FC
:1005000000000000000000000000000000004000AB
:10051000000041003C004200430044000000000095
:100520003D003E0000003A003F0000003B0000009C
:1005300000000000000000000000000000000000BB
:1005400000000000000000000000000000000000AB
:10055000000000000000000000000000000000009B
:100560000000450000000000000000000000000046
:10057000000000000000000000000000000000007B
:10058000000000000000000000000000000000006B
:10059000000000000000000000000000000000005B
:1005A000000000000000000000000000000000004B
:1005B000000000000000000000000000000000003B
:1005C000000000000000000000000000000000002B
:1005D000000000000000000000000000000000001B
:1005E000000000000000000000000000000000000B
:1005F00000000000000000000000000000000000FB
:1006000000000000000000000000000000000000EA
:1006100000000000000000000000000000000000DA
:1006200000000000000000000000000000000000CA
:1006300000000000000000000000000000000000BA
:1006400000000000000000000000000000000000AA
:10065000000000000000000000000000000000009A
:10066000000000000000000000000000000000008A
:10067000000000000000000000000000000000007A
:10068000000000000000000000000000000000006A
:10069000000000000000000000000000000000005A
:1006A000000000000000000000000000000000004A
:1006B000000000000000000000000000000000003A
:1006C000000000000000000000000000000000002A
:1006D000000000000000000000000000000000001A
:1006E000000000000000000000000000000000000A
:1006F00000000000000000000000000004033000C3
:1007000000002C0351004D004B0020005500530009
:1007100042002D00550053004200200043006F00AE
:100720006E007600650072007400650072000000C3
:10073000080351004D004B000000040309040902A6
:100740003B00020100A0FA090400000103010100BE
:100750000921110100012240000705810308000A58
:100760000904010001030000000921110100012218
:1007700032000705820320000A1201100100000068
:1007800008EDFE5B0001000102030105010980A1E3
:1007900001850319012AB700150126B700950175D7
:1007A000108100C0050C0901A101850419012AA0CE
:1007B00002150126A002950175108100C0050109EE
:1007C00006A101050719E029E7150025019508751F
:1007D0000181029501750881010507190029FF159E
:1007E0000026FF00950675088100050819012905F6
:1007F000950575019102950175039101C0003E0AAE
:100800004F0D11241FBECFEFDAE0DEBFCDBF04B61F
:1008100003FE27C08091640490916504A091660452
:10082000B09167048730904BA740B04BD1F4109241
:10083000640410926504109266041092670414BE5A
:1008400084B7877F84BF0FB6F894A8958091600025
:10085000886180936000109260000FBEE0E0F8E3D2
:10086000099511E0A0E0B1E0EEE9F6E602C00590DE
:100870000D92A83DB107D9F724E0A8EDB1E001C081
:100880001D92A436B207E1F713E0C1E0D4E004C042
:100890002197FE010E940533CF3FD107C9F70E947F
:1008A000592C0C944D330C94000080E00895089569
:1008B00080E0089581E00895CF93DF93CDB7DEB750
:1008C00028970FB6F894DEBF0FBECDBFE22F298365
:1008D0003A834B835C836D837E838F83988780917B
:1008E0001003E82BE0931003FE013396AE01475F3F
:1008F0005F4F2191243088F0A2E1B3E080E090E0E6
:100900003D91311106C0DC01A05FBC4F12962C93C3
:1009100004C001968630910599F7E417F50749F769
:1009200028960FB6F894DEBF0FBECDBFDF91CF91F2
:100930000895860F911D860F911DFC0156874587EE
:1009400081E00895FC0187890895CF93DF93EC013E
:100950008C819D81DC01ED91FC910480F581E02D7D
:100960006E8109951F86188A81E08A8B1E821B8AF8
:100970001C8A1D8A1E8A1F8A80E0DF91CF9108950C
:10098000FC018681089581E0633009F080E00895DC
:1009900081E0613009F080E00895860F911D860F97
:1009A000911DFC01858596850895EF92FF92CF9366
:1009B000DF93DC01E70152968C915297823049F126
:1009C0001F966C931F9750964C9350979B819370F2
:1009D0009330F9F49A8197FF1CC09E8158962C9110
:1009E0005897291718F458969C935897E82FF0E0D9
:1009F0009F01220F331FE20FF31FEA0FFB1F9A81A3
:100A00009F7097839C81908794E091878F5F529627
:100A10008C93DF91CF91FF90EF900895EF92FF922A
:100A20000F9302970E94D5040F91FF90EF900895C5
:100A30000895DF92EF92FF920F931F93CF93DF936E
:100A4000CDB7DEB762970FB6F894DEBF0FBECDBF4D
:100A5000DC0157962C91222381F07C010E94600DCD
:100A6000F7010389148925893689DC01CB01801BB4
:100A7000910BA20BB30BB7FF02C0D12C39C08385F9
:100A800090E09A8B898B8E010F5F1F4F9E012F5E26
:100A90003F4F42856681848195810E94C215D82E80
:100AA000811118C029893A892330310598F0D7017E
:100AB0001D968D919C911E97009761F0DC01ED9140
:100AC000FC910190F081E02D8E010F5F1F4F40E0FF
:100AD000B70109950E94600DF701208DDC01CB0163
:100AE000820F911DA11DB11D838B948BA58BB68B9D
:100AF0008D2D62960FB6F894DEBF0FBECDBFDF918D
:100B0000CF911F910F91FF90EF90DF9008953F924A
:100B10004F925F926F927F928F929F92AF92BF920D
:100B2000CF92DF92EF92FF920F931F93CF93DF93B9
:100B3000CDB7DEB7EC970FB6F894DEBF0FBECDBFD2
:100B4000DC0116963C9131113BC1522E342E462EBB
:100B50005C01FC0184809580108ED401ED91FC91A4
:100B60000190F081E02D60E0C40109957C010097BF
:100B700011F486ED2AC1FC0160807180611471045A
:100B800009F420C16501F7E0CF0ED11CDC011196FC
:100B9000DC92CE9214965C928E01065D1F4F28E087
:100BA00030E040E060E0F501848195810E9484138B
:100BB0008CAF8111F8C01AA5D7016D927C92D40137
:100BC000ED91FC910280F381E02D232D40E0642D16
:100BD000C4010995F5018683882309F4F5C099A914
:100BE0009087282F40E060E0848195810E942F1437
:100BF0008CAFD401ED91FC91D70114961C928823FF
:100C000059F00480F581E02DD50116966C91C40150
:100C10000995F5011682D2C00190F081E02DD50131
:100C200016966C91C4010995FC01892B09F4A1CF9A
:100C3000912F133108F092E15482992369F0292F02
:100C400030E08E01065D1F4F40E0F5016681848132
:100C500095810E9484138CAF8CAD8111A7C04BACE1
:100C6000512C41E1842E41E0942E3501F2E06F0ECB
:100C7000711C7E0181E1E80EF11C541449F19A8245
:100C800089827C826B821E86188A1F8619A21AA20C
:100C90001BA219A6FF82EE82F986E8868D818B87DA
:100CA0008A87FD86EC868E010F5F1F4F252D40E061
:100CB000D50116966C91169714968D919C91159767
:100CC0000E94D213F5018289823011F05394D5CF5E
:100CD000D50152968C91823019F081ED8CAF66C0AF
:100CE000960142E0F5016681848195810E94DB0EC8
:100CF0008CAF68EE73E080E090E00E94620DD50159
:100D00001F962C911F9740E016966C91169714969B
:100D10008D919C9115970E949D158CAF811146C0B5
:100D200068EE73E080E090E00E94620D40E060E0D9
:100D3000C5010E9490178CAF811138C020E040E0BF
:100D400060E0C5010E9466178CAF87E191E09A834D
:100D50008983AE014F5F5F4F60E070E0C5010E9484
:100D6000F61680E28CAF8CAD8823C1F090E09595AB
:100D700087958CAFFE01FC966F01EE24E394F12C75
:100D800000E022E040E060E0C5010E94391769E11F
:100D900070E080E090E00E94620DE5CF91E0D50127
:100DA00057969C9312C0F70171826082D501ED9134
:100DB000FC910480F581E02DC50109958CAD05C03D
:100DC00089ED03C087ED01C084EDEC960FB6F89471
:100DD000DEBF0FBECDBFDF91CF911F910F91FF906E
:100DE000EF90DF90CF90BF90AF909F908F907F90CB
:100DF0006F905F904F903F90089508950C94FD067A
:100E000008950C940007CF93DF93609132027091A4
:100E10003302E091DF01F091E00140912602509110
:100E2000270220911A0230911B0280910E029091AC
:100E30000F026E177F07B1F4E091DD01F091DE0142
:100E40004E175F0779F4E091DB01F091DC012E177A
:100E50003F0741F4E091D901F091DA018E179F0725
:100E600009F463C07093E0016093DF015093DE01E9
:100E70004093DD013093DC012093DB019093DA0194
:100E80008093D901E0E1F3E088E0DF011D928A95CB
:100E9000E9F720912A0230912B0240912C025091C7
:100EA0002D0260912E0270912F028091300290915C
:100EB00031020E945C0420911E0230911F02409179
:100EC00020025091210260912202709123028091B0
:100ED0002402909125020E945C042091120230911C
:100EE0001302409114025091150260911602709104
:100EF000170280911802909119020E945C042091BF
:100F00000602309107024091080250910902609157
:100F10000A0270910B0280910C0290910D020E94C6
:100F20005C0481E080930F0302C010920F030E94C3
:100F30007F2AEC0188E992E00E94F915CE010E9417
:100F4000972A88E992E00E94BB0E9091D8018917F8
:100F500061F088E992E00E94BB0E8093D80180394D
:100F600021F40E94281E0E943B1F0E94D00A81E0AB
:100F7000DF91CF910895482F80E1489F900111247F
:100F8000205E31092830310538F4909110039923FF
:100F900019F0892F90E002C080E090E0E2E1F3E0F8
:100FA00061E070E02191243070F0322F32953F7073
:100FB000431309C02F70DB0102C0AA0FBB1F2A9583
:100FC000E2F78A2B9B2BB3E0E831FB0759F7089532
:100FD0000895CF92DF92EF92FF920F93CF93DF931A
:100FE0001F92CDB7DEB7898380919602882371F076
:100FF000CE0101966C01EE24E394F12C00E022E096
:1010000040E060E08FE792E00E94391780917D0216
:10101000882371F0CE0101966C01EE24E394F12C4B
:1010200000E022E040E060E086E692E00E943917AE
:1010300080916402882371F0CE0101966C01EE2448
:10104000E394F12C00E022E040E060E08DE492E0E7
:101050000E94391780914B02882371F0CE010196CE
:101060006C01EE24E394F12C00E022E040E060E02B
:1010700084E392E00E94391789810E94200B0F902F
:10108000DF91CF910F91FF90EF90DF90CF90089577
:10109000FC01758364838DE191E0918380838BE310
:1010A00091E093838283138A148A158A168A178A99
:1010B000178288E080878CE381871286138684E01C
:1010C000848781E0828B118A1786168615866115C2
:1010D0007105B1F0DB01AA5ABF4F80E090E02D917D
:1010E0003D91232B49F48B96880F991FDB01A80FA4
:1010F000B91FED93FC93089501968031910579F71E
:1011000008952E9A08952E988EBD0DB407FEFDCF3A
:101110001EBC0DB407FEFDCF0E9481088EB5089558
:101120002E9882608EBD0DB407FEFDCF6EBD0DB44E
:1011300007FEFDCF0C94810888EF0E948308807C15
:101140008034A1F018F4882301F10895803819F053
:10115000803CB9F0089588ED0E94830881FD0BC0A2
:1011600069EC88ED0E94900882E00CC088ED0E9436
:10117000830881FDF5CF6BEC88ED0E94900883E039
:1011800001C081E08093E101089561ED88ED0E9446
:1011900090081092E10108950F931F93CF93DF936E
:1011A0008C01269A0E948108219A229A2398209ADB
:1011B00080E58CBD81E08DBD259868E188E80E94BE
:1011C000900860E288E70E94900860E088E70E944B
:1011D0009008C0E0D0E088E60E948308219680FD58
:1011E00006C0CF3F8FEFD807B1F78FEF1DC061EC7E
:1011F00088ED0E94900860E680ED0E94900864E00F
:1012000088EE0E94900888EE0E94830882FFFBCF40
:10121000C8010E949C0860E288EC0E94900861E08E
:1012200080E80E94900880E0DF91CF911F910F919C
:10123000089588E992E00E94CC0888E292E09093B9
:101240008D0280938C028CE192E0909374028093E3
:10125000730280E192E090935B0280935A0284E0F3
:1012600092E090934202809341020C94C80AEF925C
:10127000FF920F931F93CF93DF93EC017B018A01C1
:1012800088A1823029F128F4882341F0813081F04F
:10129000C8C0833019F18430D9F1C3C082E08C8397
:1012A0002D813E8138872F838A87898781E088A3B3
:1012B000A801B701CE0107960E94811B811102C0CF
:1012C00080E0B0C0ED81FE81808189A381818AA305
:1012D000CE0142969E838D8383E088A38AA18430C9
:1012E00059F018F4823049F00AC0853039F0813263
:1012F00031F489A1825002C01BA287E08C838D81CA
:101300009E8198878F838C818A87898784E088A3D0
:101310008AA1843081F0853091F1823009F050C08B
:10132000A801B701CE0107960E94811B882341F2D4
:101330008D898CA371C0A801B701CE0107960E94C8
:10134000811B882309F4BCCF8D89833009F064C0E8
:101350008E89813009F060C098A58F89992321F08A
:10136000882309F459C003C0813009F055C091E0C9
:101370009BA39A899EA39B899FA38DA34DC0A8017F
:10138000B701CE0107960E94811B882309F498CFEC
:101390008BA1882309F440C08A819B810097E1F1E9
:1013A000DC01ED91FC910190F081E02D7E01B0E136
:1013B000EB0EF11C0DA12FA14EA16CA109952CC023
:1013C0008D85882319F0813041F021C089A190E0FA
:1013D00002979F878E8781E08D878E859F850097F6
:1013E000A9F0F80120813181232B89F001979F8793
:1013F0008E87D7018D919C91119701968D939C9327
:1014000080819181019791838083E7CF1D868E85AE
:101410009F85892B09F054CFCE0140969E838D8302
:1014200018A281E0DF91CF911F910F91FF90EF9073
:1014300008950F931F93CF93DF9300D000D0CDB7C3
:10144000DEB78C017C836B835A8349838B819C81BB
:10145000892B59F0AE014D5F5F4FBE016F5F7F4F2B
:10146000C8010E9437098111F1CF0F900F900F90A2
:101470000F90DF91CF911F910F91089588E992E02D
:101480000E948B0E68E972E08FE792E00E944808A4
:1014900068E972E086E692E00E94480868E972E036
:1014A0008DE492E00E94480868E972E084E392E0EB
:1014B0000E94480882E791E09093290280932802D5
:1014C00090931D0280931C0290931102809310024E
:1014D000909305028093040268E972E083EF91E043
:1014E0000E94141A68E972E082EE91E00C94141ADA
:1014F00081E0089581E008950C947A0A08950C948F
:101500007E0A1F93CF93DF9300D000D01F92CDB7F8
:10151000DEB749835A836B833091570389819A815F
:10152000311114C0662359F0222349F00E94CD27BF
:10153000182F682F89819A810E94762703C00E9404
:10154000A127182F69817A81812F04C00E94CD279D
:1015500069817A810F900F900F900F900F90DF911B
:10156000CF911F910C94260BFC01262F40815181B5
:101570006281738184810C94810ACF93DF93EC01A3
:1015800060E00E94B40ABE01DF91CF910C947F0A03
:101590000E940129811102C00E94A1290C94FE061B
:1015A0000C94010708950E947F220E94D20A2FEF17
:1015B00084E39CE0215080409040E1F700C00000AF
:1015C0000C94CC2A0F931F93CF93DF93EC0161E02F
:1015D0000E94B40A8C01BE010E947C0A882349F152
:1015E000BE01C8010E94751C882319F1BE01C80103
:1015F0000E94C71C8823E9F0BE01C8010E94F21DA9
:101600008823B9F08A81882369F001158CE51807D1
:1016100031F00E3D1C4531F40E94A1290AC00E9400
:10162000D30A07C0CE01DF91CF911F910F910C9487
:10163000780A80E0DF91CF911F910F91089508956E
:101640000C941F0B80E090E008950895E72FF0E0E0
:1016500090E1899FE00DF11D112484E0EE0FFF1F42
:101660008A95E1F7E60FF11DEE0FFF1FE450FF4FE3
:10167000859194910895880F991FFC01E450F94FCA
:10168000859194910895CF93DF930E94260B0E9439
:10169000550CEC018115904508F043C0C11580E45C
:1016A000D80708F0CBC0C03ED10528F5C03CD10515
:1016B00008F0B3C0C83AD10578F4C53AD10508F0AE
:1016C000A4C0C130D10509F4ECC008F4E8C0C430AE
:1016D000D10508F0E6C0E3C0CF3BD10508F0DFC07C
:1016E000C85AD0E0CC0FDD1FC35CDE4F0990D88113
:1016F000C02DD464D6C0C11590E2D90750F4C115ED
:1017000021E0D20708F0CDC0C83ED10508F4C9C019
:10171000C6C0C11580E3D80708F086C0CE019F700F
:101720007FC0C11595E5D90708F043C0C11524E570
:10173000D20708F09AC0C11582E5D80708F5C1158F
:1017400091E5D90708F07DC0CE0174E096958795A4
:101750007A95E1F783709C2F937021E030E002C00E
:10176000220F331F9A95E2F73C68382BCF70C6954D
:10177000C69580E2C89FE0011124C22BD32B91C0F3
:101780009E01237033278C2F86958695C115D345EE
:1017900008F05CC0C1E0D0E002C0CC0FDD1F2A958C
:1017A000E2F720E2829FC0011124C82BD92BDC680C
:1017B00078C0C11529E5D207A0F4C11588E5D8077E
:1017C00008F058C0C11596E5D90708F068C08C2FFD
:1017D0000E94E90C8F71C82FD0E0DC2FCC27D0629B
:1017E00060C0C1152AE5D20708F449C0CE01905661
:1017F0008115904208F053C08D2F8F710E94E90C23
:10180000DD27D0628F71D82B4CC0C55AD0E0C559A6
:10181000DE4FC881D0E0D06444C0CE01805C910925
:101820000E943B0BEC013DC0CE019927D3FF03C0C2
:10183000EC01D86C36C0EC01D06C33C0DF70D06ADC
:1018400030C0DC2FCC27C16FD06A2BC0C1E0D0E004
:1018500002C0CC0FDD1F2A95E2F720E2829FC00173
:101860001124C82BD92BDA681CC0DC2FCC27C46FFD
:10187000D06A17C0DC2FCC27C06FD06A12C08C2F63
:101880008F700E94E90C94E0D695C7959A95E1F780
:10189000CF70D0E0DC2FCC27D069C82B02C0C0E0CD
:1018A000D0E0CE01DF91CF9108958238910569F1A2
:1018B000B0F48133910509F46DC048F48932910583
:1018C00009F463C08A32910509F469C0089585332B
:1018D000910509F455C089339105B9F00895833E07
:1018E000910569F138F4803E9105B1F0823E910591
:1018F00009F10895863E9105A9F1873E9105B9F158
:10190000843E910509F064C023C02091550420FD58
:101910004FC021FD4DC008958091550480FD44C005
:101920008091560480FF44C08091550484FD42C0DC
:1019300083EE4DC08091550482FF38C0F5CF809171
:10194000550482FD33C08091560480FD31C0ECCF38
:101950008091560481FF32C08091550484FD2AC0D5
:1019600087EE35C08091550483FF26C0F5CF809166
:10197000550483FD21C08091560481FD1FC0ECCF2A
:101980008091550485FD1CC01DC08091550485FDC6
:1019900019C016C08091550486FD16C017C08091ED
:1019A000550486FD13C010C089E311C082EE0FC03C
:1019B00080EE0DC080E00BC086EE09C084EE07C04B
:1019C00089E205C085E303C08AE201C081E390E0BB
:1019D00008959091550492FF0DC0282F287128304A
:1019E00019F4877F846006C0282F2471243011F4F5
:1019F0008B7F886093FF0DC0282F2871283119F440
:101A0000877E846106C0282F2471243111F48B7ED7
:101A100088612091560420FF0DC0382F387138306E
:101A200019F4877F816006C0382F3171313011F48D
:101A30008E7F886021FF0DC0282F2871283119F46E
:101A4000877E816106C0282F2171213111F48E7E9D
:101A5000886194FD877E08950F931F93CF93DF9342
:101A6000EC01DC01129688E0F80101900D928A9554
:101A7000E1F70E94600D7B876A87DF91CF911F910C
:101A80000F91089580E090E008958FEF9FEF089503
:101A90000895862F0E94FF2881E090E00895E8E1F4
:101AA000F3E01382128288EE93E0A0E0B0E084833A
:101AB0009583A683B78388E791E091838083089517
:101AC0000C948B2A8F929F92AF92BF92CF92DF920B
:101AD000EF92FF920E94E1314B015C0120E030E087
:101AE0004AE755E40E9498326B017C0120E030E027
:101AF00040E85FE30E94AD3187FD24C020E03FEF66
:101B00004FE757E4C701B6010E9493321816ACF4B0
:101B100020E030E040E251E4C501B4010E94983277
:101B20000E94B23120E931E06115710581F0C901EF
:101B30000197F1F761507109F7CFC701B6010E9413
:101B4000B23102C061E070E0CB010197F1F7FF9084
:101B5000EF90DF90CF90BF90AF909F908F900895BF
:101B6000CF93DF93FC01862F8078A9F4283008F00A
:101B70004DC0442321F09581973009F447C0EF010F
:101B8000A1E0B0E09D85992341F011962596A03102
:101B9000B105C1F73BC080E039C061111CC085E0D0
:101BA0008A9FE0018B9FD00D1124CE0FDF1F4423AD
:101BB00031F081E4888785818F5F858302C081E071
:101BC000888725E02A9FC0012B9F900D1124E80FE4
:101BD000F91F80851BC06770660F660F660F442370
:101BE00041F0606485818F5F85838770687F682B93
:101BF00003C02770687B622B25E02A9FC0012B9FC2
:101C0000900D1124E80FF91F6087862FDF91CF9187
:101C10000895611102C006960895FC0121E0358502
:101C2000631739F02F5F35962031C9F780E090E0D7
:101C30000895069635E0239F800D911D1124089587
:101C4000DF92EF92FF920F931F93CF93DF93EC01FC
:101C5000E62EF12C85E0689FB0011124FE01E60F0D
:101C6000F71F8085182F177086FF17C001E085E0E9
:101C7000D82EFE01D09EE00DF11D112480858695A1
:101C80008695869587701817F9F00F5F003189F7F0
:101C90008D81811302C011501D8385E08E9DF0015E
:101CA0008F9DF00D1124EC0FFD1F108681E08187C0
:101CB00012862296D783C683DF91CF911F910F9111
:101CC000FF90EF90DF900895602FCE010E94200ECC
:101CD000D0CFFC01613499F49C01255B3F4F61E05A
:101CE000AC014E5F5F4F1586668717865487438722
:101CF0003596E217F307B9F7FC011582089521E044
:101D00003585631729F02F5F35962031C9F708957F
:101D1000622F0C94200EFC018AE891E0918380836D
:101D20001582108681E081871286CF010296978303
:101D30008683128228E023832CE32483DF019F0122
:101D4000255B3F4F41E01D961C921D971E964C93BC
:101D50001E971F961C921F971C969C938E931B9701
:101D60001596A217B30779F7EA58FF4F108281E161
:101D700080932A03089580912A030895CF93C42F56
:101D80000E94090E009789F0DC01ED91FC911197FA
:101D9000309759F013969C9180E0891731F020819B
:101DA0002C1731F033968F5FF8CF80E090E001C0C0
:101DB000CF01CF9108950F931F93CF93DF932115F8
:101DC000310571F0E901042F162F0E94090EFC0164
:101DD000892B41F01283D183C083038380E003C049
:101DE00088ED01C086EDDF91CF911F910F9108958D
:101DF000CF92DF92FF920F931F93CF93DF936623CF
:101E000081F1F62E8C016C0186E5C80ED11CC0E074
:101E1000D0E0D6018D919D916D010097F1F0DC012C
:101E2000ED91FC910084F185E02D0995F81215C023
:101E3000AB96CC0FDD1FC00FD11F88819981DC01CB
:101E4000ED91FC910480F581E02DDF91CF911F9100
:101E50000F91FF90DF90CF9009942196C031D1056A
:101E6000C1F680E0DF91CF911F910F91FF90DF903D
:101E7000CF9008952E980895CF93C82F0E943A0FBF
:101E8000CEBD0DB407FEFDCF1EBC0DB407FEFDCFC9
:101E90000E9481088EB5CF910895CF93DF93C82F0C
:101EA000D62F0E943A0FC260CEBD0DB407FEFDCF03
:101EB000DEBD0DB407FEFDCFDF91CF910C948108FC
:101EC0008F929F92AF92BF92CF92DF92EF92FF924A
:101ED0000F931F93CF93DF93EC01D62EC42E59019D
:101EE0000E94090E7C01009709F445C0FC01808125
:101EF0009181892B09F441C04C2D6D2DCE010E949A
:101F0000BE0EF501918380830097C9F1FC018281A7
:101F10008695869590E08031910514F08FE090E0F1
:101F200041E050E060E070E04A015B0104C0880CD1
:101F3000991CAA1CBB1C8A95D2F7D501C401019734
:101F4000F801918380836D2D80EE0E944D0F88ED06
:101F50000E943C0FF7019481992331F0CA58DF4F5A
:101F600068816260682B02C0682F697F88ED0E94DB
:101F70004D0F80E005C086ED03C087ED01C08BEDFD
:101F8000DF91CF911F910F91FF90EF90DF90CF9055
:101F9000BF90AF909F908F9008958F929F92AF9235
:101FA000BF92CF92DF92EF92FF920F931F93CF9346
:101FB000DF93862E942E59010E94600D6B017C01E7
:101FC00028E8C20E23E1D21EE11CF11C00E010E063
:101FD000D0E0C0E098280E94600DDC01CB018C1994
:101FE0009D09AE09BF09B7FF2DC0692D80EF0E9482
:101FF0004D0F0E94600DDC01CB018C199D09AE09CB
:10200000BF09B7FF09C088EC0E943C0F87FFF1CFE2
:1020100060E888EC0E944D0F88EF0E943C0FC82FAB
:10202000CF70C43019F0CE3051F00CC00F5F1F4F8D
:10203000A114B10481F20A151B0569F603C0DF5F24
:10204000D33049F68C2FDF91CF911F910F91FF90E4
:10205000EF90DF90CF90BF90AF909F908F900895BA
:102060009F92AF92BF92CF92DF92EF92FF920F9327
:102070001F93CF93DF937C01D42F122F902E00E07B
:102080006C01C60ED11CC60ED11C86E5C80ED11C33
:10209000A42EB12CABE2AA0EB11CAA0CBB1CAE0C38
:1020A000BF1CF60180819181DC01ED91FC910280E1
:1020B000F381E02D292D412F6D2F0995803EC9F424
:1020C000D1110BC061E088EE0E944D0F66E670E012
:1020D00080E090E00E94620D14C0F5018081918142
:1020E000DC01ED91FC910284F385E02D612F0995CF
:1020F00008C08D3021F4033008F03FC014C08111B6
:102100003FC0F60180819181DC01ED91FC9101904D
:10211000F081E02D292D412F6D2F0995C82F8D308D
:1021200051F4033050F464E670E080E090E00E94E7
:10213000620D0F5FB6CF882311F1D1110BC061E0A2
:1021400088EE0E944D0F66E670E080E090E00E940D
:10215000620D11C0ED2FF0E0BB96EE0FFF1FEE0DEC
:10216000FF1D80819181DC01ED91FC910284F3855A
:10217000E02D612F09958C2F03C08DE001C080E018
:10218000DF91CF911F910F91FF90EF90DF90CF9053
:10219000BF90AF909F9008950F931F93CF93DF93BD
:1021A000182F062FEA010E943A0F12601EBDFE0191
:1021B000802F882339F00DB407FEFDCF91919EBD8D
:1021C0008150F7CFC00FD11D0DB407FEFDCF0E9487
:1021D0008108CE01DF91CF911F910F9108952F9229
:1021E0003F924F925F926F927F928F929F92AF92A7
:1021F000BF92CF92DF92EF92FF920F931F93CF93F4
:10220000DF9300D000D01F92CDB7DEB77D836C8303
:102210004A016901FB01F1808FEF8F0D803408F0D6
:1022200074C00E94600D2B013C01F8E84F0EF3E1F1
:102230005F1E611C711CEC81FD81828180FD02C0EA
:1022400060E401C060E888EE0E944D0F312C8F2DB4
:1022500090E09A838983C114D10409F448C0E980CD
:10226000FA80CE14DF0408F47601EB82A8016E2D0B
:1022700080E10E94CC106E2D88E30E944D0FEC810E
:10228000FD816081606280EF0E944D0F88EC0E94AA
:102290003C0F87FFFBCF60E888EC0E944D0F88EF72
:1022A0000E943C0F8F70382EA12CB12C212C332092
:1022B00009F46BC00E94600DDC01CB018419950903
:1022C000A609B709B7FF61C0F6E03F1601F12EE09D
:1022D000321609F455C084E0381209C0FFEFAF1A76
:1022E000BF0A8114910449F1A814B90431F588EFAB
:1022F0000E943C0F85FB882780F9EC81FD8192814B
:1023000080FB90F99283832D45C08AED43C088EF0E
:102310000E943C0F85FB882780F991E08927EC819A
:10232000FD81928180FB90F9928390FD02C060E470
:1023300001C060E888EE0E944D0F60E088E30E94D3
:102340004D0FF801608180E10E944D0F6B8188E3A1
:102350000E944D0FEC81FD816081606280EF0E94E0
:102360004D0F88EC0E943C0F87FFFBCF60E888ECA4
:102370000E944D0F88EF0E943C0F8F70382E97CF30
:10238000239423E02212D9CFB2CFCE18DF080E0D4E
:102390001F1D61CF0F900F900F900F900F90DF9146
:1023A000CF911F910F91FF90EF90DF90CF90BF9052
:1023B000AF909F908F907F906F905F904F903F90E5
:1023C0002F9008952F923F924F925F926F927F923B
:1023D0008F929F92AF92BF92CF92DF92EF92FF9235
:1023E0000F931F93CF93DF9300D000D01F92CDB7F0
:1023F000DEB73C017B015A8349836901F901A08062
:10240000B180FB012180F90111821082FB018281E0
:1024100081FD02C060E101C060E288EE0E944D0FC4
:10242000AB8229813A81F701408160E0C3010E94BB
:10243000CD0F582EF6E08F1315C088EF0E943C0F89
:102440008295817021E08227F701928180FB91F9CA
:10245000928391FD02C060E101C060E288EE0E94BB
:102460004D0FDFCF81115AC088EC0E943C0F82FFD4
:1024700053C080E30E943C0F482E90E0A816B90696
:1024800008F44B80F601808191819501281B390B5E
:102490003D832C8337FF02C01D821C82842C912C2B
:1024A0008C819D818816990614F49D828C823C80D3
:1024B0000E943A0F98E09EBD0DB407FEFDCFF801D3
:1024C000332041F01EBC3A940DB407FEFDCF8EB50B
:1024D0008193F6CFEC81FD810E0F1F1F0E948108B2
:1024E00064E088EC0E944D0FF60180819181880E96
:1024F000991E91828082421420F08A149B0408F471
:1025000090CF88EF0E943C0F82958170F7019281F5
:1025100080FB91F9928302C080EF582E852D0F9099
:102520000F900F900F900F90DF91CF911F910F910F
:10253000FF90EF90DF90CF90BF90AF909F908F90E3
:102540007F906F905F904F903F902F9008952F92C3
:102550003F924F925F926F927F928F929F92AF9233
:10256000BF92CF92DF92EF92FF920F931F93CF9380
:10257000DF93CDB7DEB761970FB6F894DEBF0FBE1D
:10258000CDBF3C01D42E322E202EE98A4EA05FA072
:10259000E8A4F9A4188A1F861E861D868E01035F93
:1025A0001F4F9E01215F3F4F0E94600F811193C01A
:1025B00039822A8289898B83CC82BE82AD829886B9
:1025C0008F82AE014F5F5F4F68E080E20E94CC10C7
:1025D0002D853E854D2D60E1C3010E94CD0F182F42
:1025E000811175C0932D9078C92EE114F10409F47E
:1025F0005FC0EF85F8898281992309F44AC082601F
:1026000082835401A114B10409F457C05C864B863F
:102610004D855E856F85788987019E01255F3F4FD7
:10262000C3010E94E211182F863081F42F8438886C
:1026300088EF0E943C0F85FB882780F9A1E08A275C
:10264000F101928180FB91F99283DCCF81113FC02F
:102650008AA59BA50097A1F0DC01ED91FC91119753
:102660000190F081E02DC4018A199B099A8789871E
:102670006B857C859E01275F3F4FA701CD010995A2
:102680008B859C85A81AB90A8415950508F0BACFE0
:102690000FC0816082834D855E8587019201BF01F5
:1026A000C3010E94EF10811116C02D853E8511C017
:1026B0002D853E85C11005C00CC0111108C02D85A7
:1026C0003E8560EA4D2DC3010E94CD0F04C0812FCD
:1026D00002C060E8F7CF61960FB6F894DEBF0FBE78
:1026E000CDBFDF91CF911F910F91FF90EF90DF90C1
:1026F000CF90BF90AF909F908F907F906F905F90A2
:102700004F903F902F9008958F929F92AF92BF92DB
:10271000CF92EF920F931F931F921F921F930F93CD
:102720003F932F934901A12CB12CCC24C394E12CCD
:1027300006E020E80E94A7120F900F900F900F90D4
:102740000F900F901F910F91EF90CF90BF90AF908F
:102750009F908F9008958F929F92AF92BF92CF9249
:10276000EF92FF920F931F921F92FF92EF923F936F
:102770002F934901A12CB12C22E0C22EE02E06E0BD
:1027800020E80E94A7120F900F900F900F900F90CB
:102790000F900F91FF90EF90CF90BF90AF909F90D0
:1027A0008F9008954F925F926F927F928F929F9237
:1027B000AF92BF92CF92DF92EF92FF920F931F934F
:1027C000CF93DF93CDB7DEB7C054D1090FB6F894DD
:1027D000DEBF0FBECDBF3C01D62E542E422EC02EE2
:1027E000CE0101965C017C01022F29E030E0C3019B
:1027F0000E94AB1381111BC08B809C801F93CF92D2
:10280000BF92AF921F9280E48F93A12CB12C82E0F3
:10281000C82EE42C06E020E8452D6D2DC3010E9452
:10282000A7120F900F900F900F900F900F90C05C19
:10283000DF4F0FB6F894DEBF0FBECDBFDF91CF9153
:102840001F910F91FF90EF90DF90CF90BF90AF90CE
:102850009F908F907F906F905F904F9008958F9290
:102860009F92AF92BF92CF92EF920F93CF931F920E
:102870001F921F921F921F921F92812C912CA12CAC
:10288000B12CC12CE22E05E020E00E94A712C82F37
:102890006CE271E080E090E00E94620D0F900F907A
:1028A0000F900F900F900F908C2FCF910F91EF9072
:1028B000CF90BF90AF909F908F9008950F931F93EC
:1028C000CF93DF938A3F3FEF930711F486ED2DC03E
:1028D000DC011696ED91FC911797EF2B09F1122F61
:1028E000242FEC011A8740E00E94B00D082F8823A6
:1028F000C9F0682FCE010E94090E009739F3FC0140
:102900001483202F40E060E0CE010E942F14182F86
:10291000882351F0602FCE010E94690E812F05C0DF
:1029200087ED03C084ED01C080E0DF91CF911F915E
:102930000F9108952F923F924F925F926F927F92E4
:102940008F929F92AF92BF92CF92DF92EF92FF92BF
:102950000F931F93CF93DF93CDB7DEB766970FB674
:10296000F894DEBF0FBECDBF1B8A38E03C8B3CE342
:102970003D8B8A3F3FEF930709F464C0522E342EFB
:10298000462E7C01DC011696CD90DC901797CE0187
:10299000439617969C938E9316971A962C938E01B6
:1029A0000F5F1F4F22E130E040E060E0C7010E946E
:1029B0008413F701D782C6828111A6C089849A84C4
:1029C0006B847C84FD81FE8B2E80670136E5C30E0F
:1029D000D11C560110E0D5018D919C910097F1F129
:1029E000DC01ED91FC910084F185E02D09958111C8
:1029F00035C0F50180819181DC01ED91FC91008869
:102A0000F189E02D622D0995882341F1F50180813E
:102A10009181DC01ED91FC910484F585E02DA30109
:102A2000B4010995811110C0F50180819181DC010B
:102A3000ED91FC910684F785E02D6E890995811151
:102A400003C00CC086ED60C0052D232D442D612FE1
:102A5000C7010E943010813D09F056C01F5FB2E0EF
:102A6000AB0EB11C103109F0B6CF10E0F601808139
:102A700091810097E1F1DC01ED91FC910084F185F9
:102A8000E02D0995811133C0F60180819181DC012F
:102A9000ED91FC910088F189E02D622D0995882344
:102AA000D9F0F60180819181DC01ED91FC910484E3
:102AB000F585E02DA301B4010995811118C0F60137
:102AC00080819181DC01ED91FC910684F785E02DF8
:102AD0006E89099581110BC0052D232D442D612F81
:102AE000C7010E943010982F977F913D69F41F5FB6
:102AF000E2E0CE0ED11C103109F0B8CF252D432DC8
:102B0000642DC7010E945E1466960FB6F894DEBF6E
:102B10000FBECDBFDF91CF911F910F91FF90EF902E
:102B2000DF90CF90BF90AF909F908F907F906F90ED
:102B30005F904F903F902F9008958F929F92AF9209
:102B4000BF92CF92EF920F931F921F921F921F92EC
:102B50001F921F92812C912CA12CB12CC12CE22E02
:102B600009E020E00E94A7120F900F900F900F90A5
:102B70000F900F900F91EF90CF90BF90AF909F90DC
:102B80008F900895AF92BF92CF92DF92EF92FF9213
:102B90000F931F93CF93DF9300D000D0CDB7DEB754
:102BA0007C01690158011C821B821A8219828E01E4
:102BB0000F5F1F4F9E012D5F3F4F0E94600F8111DD
:102BC00009C049815A816B817C8185019601C701C9
:102BD0000E94E2110F900F900F900F90DF91CF9114
:102BE0001F910F91FF90EF90DF90CF90BF90AF902B
:102BF0000895AF92BF92CF92DF92EF92FF920F9320
:102C00001F93CF938C011D990EC088EC0E943C0F3E
:102C100085FF05C0C8010E949C0860E201C060E019
:102C200088EC0E944D0F8091E101813039F040F035
:102C3000823079F0833039F5C1E00CC083E106C001
:102C400080912A03807F8031F1F081E180932A0313
:102C50001AC0C0E080912A03807F8031A9F40E94CD
:102C6000600DDC01CB0188539F4FAF4FBF4F809366
:102C7000260390932703A0932803B093290380E2AF
:102C800080932A0301C0C0E0780186E5E80EF11CBC
:102C90006801A6E7CA0ED11C5701F50181919191F7
:102CA0005F01009739F0DC01ED91FC910680F7811E
:102CB000E02D0995AC14BD0481F780912A0380347E
:102CC00009F43FC050F4803221F18033A1F1813109
:102CD00009F082C0F60110820AC0813509F458C09B
:102CE000803809F46AC0803509F076C039C0D70150
:102CF0008D919D917D01009739F0DC01ED91FC9162
:102D00000480F581E02D0995EC14FD0481F782E142
:102D100061C00E94600D009126031091270320914D
:102D2000280330912903DC01CB01801B910BA20BFE
:102D3000B30BB7FD51C061E088EE0E944D0F80E4F7
:102D400049C088EE0E943C0F80FD46C088ED0E947D
:102D50003C0F682F686088ED0E944D0F80E53AC0F7
:102D600088EC0E943C0F86FF37C081E580932A03E0
:102D70000E94600DDC01CB014496A11DB11D809322
:102D8000260390932703A0932803B093290324C01C
:102D90000E94600DC0902603D0902703E090280386
:102DA000F0902903DC01CB018C199D09AE09BF0904
:102DB000B7FD12C080E880932A032C2F40E060E02A
:102DC000C8010E949A14882321F0823D29F080EAEC
:102DD00001C080E980932A03CF911F910F91FF904A
:102DE000EF90DF90CF90BF90AF9008958F929F9219
:102DF000AF92BF92CF92EF920F93CF93DF93CDB765
:102E0000DEB7C054D1090FB6F894DEBF0FBECDBFF8
:102E10005F934F939E012F5F3F4F3F932F931F92DE
:102E200020E42F9320E8822E912C5B0132E2C32E06
:102E3000E12C06E021E840E0FC0166818481958177
:102E40000E94A7120F900F900F900F900F900F906D
:102E5000C05CDF4F0FB6F894DEBF0FBECDBFDF9171
:102E6000CF910F91EF90CF90BF90AF909F908F90A8
:102E700008958F929F92AF92BF92CF92DF92EF927E
:102E8000FF920F93A42EB12C1F921F92DF92CF922C
:102E9000FF92EF924701C22EE02E09E021E2462F79
:102EA000FC016681848195810E94A7120F900F908A
:102EB0000F900F900F900F900F91FF90EF90DF9079
:102EC000CF90BF90AF909F908F9008958F929F92D8
:102ED000AF92BF92CF92EF920F93A62EB12C1F927A
:102EE0001F921F921F921F921F92812C912CC22E13
:102EF000E42E0AE021E240E0FC01668184819581B4
:102F00000E94A7120F900F900F900F900F900F90AC
:102F10000F91EF90CF90BF90AF909F908F900895BA
:102F20008F929F92AF92BF92CF92EF920F93A62E65
:102F3000B12C1F921F921F921F921F921F92812CE1
:102F4000912CC12CE42E0BE021E240E0FC016681D3
:102F5000848195810E94A7120F900F900F900F907F
:102F60000F900F900F91EF90CF90BF90AF909F90E8
:102F70008F900895FC018285089581E0693009F001
:102F800080E00895CF93DF93EC018A819B81DC017F
:102F9000ED91FC910480F581E02D6A8509958A8583
:102FA000813439F4EA81FB81EA58FF4F80818460E3
:102FB00080831A861B861C861D861E861F86188A9D
:102FC00080E0DF91CF9108958F929F92AF92BF9250
:102FD000CF92EF920F93A42EB12CB22A1F921F9280
:102FE0001F921F921F921F92812C912CC12CE62EB2
:102FF00001E023E240E0FC016285828193810E942E
:10300000A7120F900F900F900F900F900F900F91AD
:10301000EF90CF90BF90AF909F908F9008958F9238
:103020009F92AF92BF92CF92EF920F93A62EB12CA8
:103030001F921F923F932F935F934F934A01C12C8E
:10304000E12C00E023EA40E0FC016285828193816B
:103050000E94A7120F900F900F900F900F900F905B
:103060000F91EF90CF90BF90AF909F908F90089569
:103070008F929F92AF92BF92CF92EF920F93A42E16
:10308000B12CB22A1F921F921F921F921F921F9261
:10309000812C912CC12CE62E03E023E240E0FC01C0
:1030A0006285828193810E94A7120F900F900F90EA
:1030B0000F900F900F900F91EF90CF90BF90AF9027
:1030C0009F908F9008952F923F924F925F926F92B0
:1030D0007F928F929F92AF92BF92CF92DF92EF92A8
:1030E000FF920F931F93CF93DF93CDB7DEB7E8978F
:1030F0000FB6F894DEBF0FBECDBFDC011A963C912F
:10310000311107C1122F242E362E3C01FC01C28042
:10311000D380D601ED91FC910190F081E02D60E02B
:10312000C60109957C01009709F4F5C0FC01A08057
:10313000B180A114B10409F4F0C04301F4E08F0E92
:10314000911CDC0111969C928E9214961C93FE01A8
:1031500031962F018F0128E030E040E060E0D3019C
:1031600012968D919C9113970E948413F7011482FB
:103170008111D9C08D81893009F0D1C00981D60172
:10318000ED91FC910280F381E02D222D41E0632D31
:10319000C6010995F3018287882309F4C2C0988586
:1031A0009583282F40E060E0828193810E942F1454
:1031B000182F882389F0D701AD92BC92D601ED91EA
:1031C000FC910480F581E02DD3011A966C91C60123
:1031D0000995F3011286ABC0202F013208F020E2DE
:1031E000D701AD92BC9221110BC0940142E0F301D2
:1031F0006285828193810E94DB0E811197C010C08D
:1032000030E0820140E0D3011A966C911A97129631
:103210008D919C9113970E948413811187C0E5CFF3
:103220001F921F925F924F921F9288E08F9388E0C7
:10323000882E912CA12CB12C99E2C92EE12C06E00C
:1032400020EA40E0F3016285828193810E94A71207
:10325000182F0F900F900F900F900F900F908111DB
:1032600066C08B81D3011B968C931B97720100E083
:1032700028E030E040E01A966C911A9712968D91F2
:103280009C9113970E94AB13811150C02B813C81FC
:1032900040E0F3016285828193810E94AB1381112A
:1032A00045C0298130E0CE0181967C0140E0D30108
:1032B0001A966C911A9712968D919C9113970E9471
:1032C000AB13811133C02E8140E0F301628582810E
:1032D00093810E949D15811129C001E0D3011B96A5
:1032E0008C91801740F020E0402F68E0C3010E94DD
:1032F00038180F5FF3CFD3011296ED91FC9113971D
:10330000EA58FF4F80818460808381E050968C93DF
:103310000EC019ED0CC016ED0AC017ED08C011ED76
:1033200006C014ED04C0F701B182A082182F812FCE
:10333000E8960FB6F894DEBF0FBECDBFDF91CF91F8
:103340001F910F91FF90EF90DF90CF90BF90AF90C3
:103350009F908F907F906F905F904F903F902F90B5
:103360000895CF92DF92FF920F931F93CF93DF9335
:1033700000D000D0CDB7DEB78C01F62E19821A82AC
:103380001B821C8220E0462F61E10E94E41720E0AE
:103390004F2D60E1C8010E94E41720E04F2D64E04A
:1033A000C8010E94381883E0C82ED12C9E012F5FDF
:1033B0003F4F44E050E06F2DC8010E940F18882352
:1033C000F1F020E04F2D64E1C8010E94E41720E0F5
:1033D0004F2D60E1C8010E94E41764E170E080E0D5
:1033E00090E00E94620D0F900F900F900F90DF9170
:1033F000CF911F910F91FF90DF90CF900895898119
:103400009A81AB81BC819D7F83309140A041B10501
:10341000C1F264E670E080E090E00E94620D81E01D
:10342000C81AD10819F6CDCFFC0184E991E0918347
:1034300080837383628312861386148615861686AC
:103440001786108A148288E085839CE3968391E036
:103450009783808784E0818761157105B1F0DB0176
:10346000AA5ABF4F80E090E02D913D91232B49F463
:103470008B96880F991FDB01A80FB91FED93FC9362
:10348000089501968031910579F70895EF92FF92A2
:103490000F931F93CF938C01C62F7A01FA0180817D
:1034A0009181A281B3818130F3E09F07F1E0AF0702
:1034B000B105D1F060F48115E1E09E07AE07B105DA
:1034C00071F181309140A140B10571F064C0833049
:1034D00021E0920720E1A207B105E1F1833093409A
:1034E000A041B105B9F157C080912B03811153C0A0
:1034F00020E04C2F61E1C8010E94E41720E04C2F2E
:1035000060E1C8010E94E41720E04C2F64E0C8018C
:103510000E94381881E080932B0381EB3DC020E0AE
:10352000462F61E1C8010E94E41720E04C2F60E1C2
:10353000C8010E94E41710922B03F801628567709E
:10354000C770660F660F660F6C2B828193810E9495
:10355000F80E21C020E04C2F64E1C8010E94E4175E
:1035600020E04C2F60E1C8010E94E41764E170E0A4
:1035700080E090E00E94620DF8016285F7012181F0
:103580002695217067704C2FF801828193810E94EB
:103590009A1410922B0380E0CF911F910F91FF900E
:1035A000EF900895EF92FF920F931F93CF93DF93C5
:1035B000CDB7DEB72E970FB6F894DEBF0FBECDBFE6
:1035C0007C0181E090E09E878D878E010F5F1F4F09
:1035D0009E01235F3F4F41E0F70162858281938125
:1035E0000E94C215811151C002E011E0898180233F
:1035F000D1F019861A861B861C869E01275F3F4FD5
:1036000044E050E0612FC7010E940F1881110BC0E8
:10361000AE01475F5F4F612FC7010E94461A813B91
:1036200099F1811132C0000F1F5F1830F9F611E0D7
:10363000F7018385811740F119861A861B861C863F
:103640009E01275F3F4F44E050E0612FC7010E9479
:103650000F18811117C089859A8587709170813004
:10366000914081F48B859C8581609C878B87AE011E
:10367000475F5F4F612FC7010E94461A813B21F0CF
:10368000811103C01F5FD4CF80E02E960FB6F8944F
:10369000DEBF0FBECDBFDF91CF911F910F91FF9085
:1036A000EF9008950F931F93CF93DF93FC01208930
:1036B000211102C080E020C0EC010E94600D0C8549
:1036C0001D852E853F85DC01CB01801B910BA20B54
:1036D000B30BB7FDEFCFCE010E94D21A182F0E9474
:1036E000600DDC01CB018C599F4FAF4FBF4F8C87D2
:1036F0009D87AE87BF87812FDF91CF911F910F915B
:103700000895CF93DF93FC01EB0180819181892B98
:1037100021F18281882319F1DA012D913C91232B2B
:10372000E1F0A881B9819C91A381B0E0A81BB10907
:1037300020813181A20FB31F9C93828181508283AB
:10374000DA018D919C91119701978D939C938881BB
:103750009981019699838883DCCF80E003C08381BF
:10376000828381E0DF91CF910895CF92DF92EF9233
:10377000FF920F931F93CF93DF936C01EB017B01BB
:10378000E40EF51E00E010E0CE15DF0561F0699152
:10379000D601ED91FC910190F081E02DC6010995D3
:1037A000080F191FF1CFC801DF91CF911F910F9121
:1037B000FF90EF90DF90CF900895AF92BF92CF929D
:1037C000DF92EF92FF920F931F93CF93DF937C01D1
:1037D0005B01C42FD22FFC0182818823F9F0409332
:1037E0002E030E947F2A90932D0380932C0380E266
:1037F0008C0F883008F06EC0C77081E001C0880F60
:10380000CA95EAF7DF91CF911F910F91FF90EF904A
:10381000DF90CF90BF90AF900C94FE1F80912E034D
:10382000481335C080912C0390912D030E94972A54
:103830006C01B701C5010E943825C816D90638F5B4
:1038400010E21D0FCD17B9F080E28C0F883040F4E4
:10385000C77081E001C0880FCA95EAF70E94052071
:10386000183058F581E09D2F977001C0880F9A9508
:10387000EAF70E94FE1F802F0E94EB1F183050F5C0
:10388000D77081E001C0880FDA95EAF70AC080E2BC
:103890008C0F8830F8F4C77081E001C0880FCA959A
:1038A000EAF7DF91CF911F910F91FF90EF90DF909A
:1038B000CF90BF90AF900C940520802FDF91CF91D7
:1038C0001F910F91FF90EF90DF90CF90BF90AF903E
:1038D0000C94EB1FDF91CF911F910F91FF90EF9010
:1038E000DF90CF90BF90AF9008950F939C01CB01D4
:1038F000233F4CE5340731F188F4283DFCE53F07D0
:10390000D9F0293D4CE5340779F1273D3C45A9F52F
:1039100006E221EE41EE67ED7CE52BC0253FFCE59C
:103920003F07E1F0A8F0263F3C4539F507E225EED8
:1039300046EE66EF7CE51DC007E225EE45EE68ED3C
:103940007CE517C006E221EE40EE63EF7CE511C096
:1039500007E225EE44EE64EF7CE50BC006E221EEC3
:1039600042EE65EF7CE505C008E221E045EE69ED39
:103970007CE50E94DD1B80E008C0FC018281882379
:1039800019F010922E0301C081E00F910895CF939A
:10399000DF93EC01FB018281882309F41FC1C2304F
:1039A000FCE5DF0708F41BC1C6319CE5D90738F0F8
:1039B0009E012A5F3C452930310508F010C10E9464
:1039C00014299093560480935504C031ECE5DE072A
:1039D00009F4C3C008F041C0C8308CE5D80709F429
:1039E0009AC0F0F4C430ECE5DE0709F487C068F44F
:1039F000C2308CE5D80709F477C0C330DC4509F044
:103A0000E3C080915504826076C0C630ECE5DE07E5
:103A100009F46EC008F07BC08091550488606BC0CB
:103A2000CC308CE5D80709F485C068F4CA30ECE5E1
:103A3000DE0709F474C008F079C00E947F228091EB
:103A40005504806858C0CE308CE5D80709F476C09C
:103A500008F07FC0809155048BC0CB3FECE5DE07BA
:103A600009F44FC018F5C3318CE5D80709F47DC0BF
:103A700078F4C131ECE5DE0709F473C0C231DC45EE
:103A800009F0A2C00E947F22809155048F7733C035
:103A9000C5318CE5D80709F472C008F486C0CA3F66
:103AA000DC4509F091C0809156043EC0CF3FFCE553
:103AB000DF0709F45FC058F4CD3F9CE5D90709F44E
:103AC00044C008F43FC08091560482602DC0C130CC
:103AD000FDE5DF0709F475C008F45DC0C230DD45BF
:103AE00009F072C080E06EC080915504816003C00F
:103AF0008091550480618093550466C0809155047F
:103B000011C0809156048260809356045DC08091FC
:103B100055048062F0CF809155048064ECCF809191
:103B2000550488608460E7CF8160EECF80915504B2
:103B30008E7FE1CF809155048D7FDDCF809155043C
:103B4000877FD9CF8091560418C0809156048D7F0D
:103B5000DBCF809155048F7ECECF809155048F7D31
:103B6000CACF809155048F7BC6CF80915504877F43
:103B70008B7FC1CF809156048D7F8E7FC5CF809182
:103B8000550482FB222720F991E0922790FB82F9CD
:103B900090FB83F9B0CF80915604982F9095917047
:103BA0008E7F892B90FB81F9AFCF0E947F2280917D
:103BB000550487FB222720F991E0922790FB87F993
:103BC0009ACF81E00E94A3298091550490915604D8
:103BD0000E9425290E947F2280E001C081E0DF91C0
:103BE000CF910895CF93DF9386319C4541F5EB014A
:103BF0000E944E28982F8A81209100013091010166
:103C0000882379F09A7A81E009F480E080932F0389
:103C1000911102C069E201C065E3C9010E94EA296D
:103C20000AC080912F03811102C069E201C065E3DF
:103C3000C9010E94EC290E949C2880E001C081E01B
:103C4000DF91CF91089590933503809334030895C5
:103C5000E0913403F0913503309721F00190F08129
:103C6000E02D099480E00895E0913403F09135034C
:103C7000309721F00280F381E02D0994089520917E
:103C80003203309133032817390771F090933303CF
:103C900080933203E0913403F0913503309721F0A3
:103CA0000680F781E02D099408952091300330912A
:103CB00031032817390771F0909331038093300353
:103CC000E0913403F0913503309721F00084F185C1
:103CD000E02D0994089585B7806885BF85B7806811
:103CE00085BF089508950C94721E0C94731E0C9455
:103CF000721E0C94721E0E946B1E0E94771E0C9402
:103D0000751E81E008950C94811E0E94762A0E94FF
:103D100019090E94F02A0C94791E7F928F929F922B
:103D2000AF92BF92CF92DF92EF92FF920F931F93C9
:103D3000CF93DF93CDB7DEB72A970FB6F894DEBFE7
:103D40000FBECDBF0E9403070E94831E811111C0C8
:103D50008FEF89838A831B820E947F2A8160782F5C
:103D60009D838C8349815A816B818D810E943D1F87
:103D70004FC047E3A42E43E0B42E00E010E0702EC5
:103D8000802F0E94BB076C01F501819091905F012B
:103D9000882699268114910431F40F5F1F4F00315A
:103DA000110569F7D5CF8091450481FD0E94E80790
:103DB00080E0EE24E394F12C94012E213F21232B6B
:103DC00009F18E837F82CE20DF2081E0CD2809F4A7
:103DD00080E088870E947F2A8160782F9A87898770
:103DE0004E815F8168858A850E943D1F000F111FEB
:103DF000F801E95CFC4F80819181E826F926F18287
:103E0000E08206C08F5FEE0CFF1C8031A9F6C5CFA3
:103E10000E94281E909136038917C9F00E94281E1F
:103E2000809336032A960FB6F894DEBF0FBECDBF3F
:103E3000DF91CF911F910F91FF90EF90DF90CF9086
:103E4000BF90AF909F908F907F900C94E9072A9637
:103E50000FB6F894DEBF0FBECDBFDF91CF911F919B
:103E60000F91FF90EF90DF90CF90BF90AF909F9019
:103E70008F907F9008950C94E907CF93DF93CDB78F
:103E8000DEB72B970FB6F894DEBF0FBECDBF4F83C2
:103E9000588769877A878B87DE01119686E0FD0156
:103EA00011928A95E9F785E0FE01379601900D920F
:103EB0008A95E1F749815A816B817C818D819E8150
:103EC0000E943B252B960FB6F894DEBF0FBECDBFE8
:103ED000DF91CF910895FC01808191810E940F288C
:103EE0000895CF93882309F448C0C82F8CEF8C0F16
:103EF000813AD0F46C2F80910001909101010E94D1
:103F0000B429882349F06C2F809100019091010120
:103F10000E94EC290E949C286C2F809100019091B6
:103F200001010E94EA290CC080E28C0F883058F40D
:103F3000C77081E001C0880FCA95EAF70E94512836
:103F4000CF910C949C28EBE5EC0FE33040F4F0E0CB
:103F5000EC52FE4F808190E0CF910C943F1EC85AE6
:103F6000C73158F4EC2FF0E0EE0FFF1FEA55FE4F7B
:103F700080819181CF910C94551ECF910895882313
:103F800049F1682F8CEF860F813A38F48091000157
:103F9000909101010E94EC290CC080E2860F8830CC
:103FA00050F4677081E001C0880F6A95EAF70E94BB
:103FB00057280C949C288BE5860F833020F480E0F2
:103FC00090E00C943F1E685A673120F480E090E046
:103FD0000C94551E0895CF93C82F0E94711FC933AA
:103FE00049F42FEF87EE93E0215080409040E1F7B5
:103FF00000C000008C2FCF910C94BF1F882321F0AC
:104000000E9451280C949C280895882321F00E9436
:1040100057280C949C280895CF92DF92EF92FF923C
:104020000F931F93CF93DF937C01062FC72FFC01C3
:10403000158112951F70D281D1110E946E280E94A5
:104040004728882399F0DD2389F08C2F807F8034E6
:1040500021F080E2800F883048F082E00E94E6285C
:104060000E94472891E0D82ED92601C0D12CCC2E11
:10407000C2948FE0C8228C2D90E0FC01EA5AFF4FD9
:104080000C9405338C2F807FCF70882311F0C2955C
:10409000C07FDD2399F0CC2309F482C180E2800F38
:1040A000883010F0011104C08C2F0E94512803C0E9
:1040B0008C2F0E9461280E949C2872C1802F0E9430
:1040C000BF1FCC2309F491C180E2800F883010F02B
:1040D000011104C08C2F0E94572803C08C2F0E940E
:1040E00067280E949C2881C18C2F807FCF708032EE
:1040F00011F0C295C07F002319F00130C9F022C031
:10410000DD2371F0112341F0113031F40E94812838
:104110008C2B0E94892869C10E9481288C2B1DC08C
:10412000112319F0113009F460C10E94922825C0B2
:10413000DD2321F0163008F058C10EC0153008F00C
:1041400054C11BC0DD2361F0112331F0F7018581DB
:1041500080FF26C18F7085838C2F0E94FE1F45C172
:10416000112359F0093309F02CC1FFEF27EE83E04A
:10417000F15020408040E1F722C18C2F0E940520A1
:1041800034C18C2F86958695837019F0813061F04B
:104190002CC1DD2321F0802F9C2F937002C080E082
:1041A00090E00E943F1E29C1DD2321F0802F9C2F2B
:1041B000937002C080E090E00E94551E1EC18C2FBB
:1041C000837009F045C0D11114C1402F4295469526
:1041D0004770440F440F602F6F70862F90E0A0E06F
:1041E000B0E0042E04C0880F991FAA1FBB1F0A94B9
:1041F000D2F704FF10C00FE010E020E030E004C070
:10420000000F111F221F331F4A95D2F700951095FA
:104210002095309503C000E010E09801C695C69542
:10422000C370BC01CD01602B712B822B932BC2304C
:1042300049F058F4C13019F00E948C26DAC00E946F
:104240007A26D7C00E949E26D4C00E947826D1C06C
:10425000DD2319F08C2F817001C08695882309F425
:10426000C8C0402F429546954770440F440F602FB9
:104270006F70862F90E0A0E0B0E0042E04C0880F9D
:10428000991FAA1FBB1F0A94D2F704FF10C00FE0AA
:1042900010E020E030E004C0000F111F221F331F88
:1042A0004A95D2F7009510952095309503C000E00F
:1042B00010E09801C695C695C370BC01CD01602B76
:1042C000712B822B932BC23049F058F4C13019F076
:1042D0000E9451278EC00E943F278BC00E946327F7
:1042E00088C00E94B22685C0CF70DD2339F08C2FA4
:1042F0000E94D826802F0E94FE1F7BC0802F0E9424
:1043000005208C2F0E94F92674C0023F01F128F489
:10431000003F41F0013FA1F03FC0033FF9F0043FEF
:1043200039F13AC0DD2341F0153008F05EC08C2F22
:104330008F710E941E2759C0163008F056C0F7CF63
:10434000DD2339F08C2F8F710E94D8264EC0DD23DB
:10435000C9F38C2F8F710E94F92647C0DD2329F005
:104360008C2F8F710E94C32640C00E94BE263DC084
:10437000DD2349F0CF718C2F0E94D82663E08C2F6B
:104380000E94D12832C081E00E94E628123068F1F4
:1043900082E00E94E62829C0DD2331F0112391F24A
:1043A000802F0E94711F21C0112399F2093349F413
:1043B0009FEFE7EEF3E09150E040F040E1F700C0FE
:1043C0000000802F0E94BF1F10C04C2F4F70602F25
:1043D000C7010E94220B0E94E9250FC04C2F4F708D
:1043E000602FC7010E94250B08C088EF8C0D843018
:1043F00020F40E94281E0E94E907DD20C9F00E94D7
:10440000432880FD15C0F70112820E943D280E94BA
:10441000D826C7010E9439220E943D28DF91CF9102
:104420001F910F91FF90EF90DF90CF900C94F926A1
:10443000DF91CF911F910F91FF90EF90DF90CF9080
:1044400008950F931F93CF93DF93EC0168817981D7
:104450008A810E941A288C010E9475270E94662674
:10446000B801CE010E940C20DF91CF911F910F91D6
:104470000895CF93DF93EC01988189812B813C8152
:10448000232B31F08F3F31F481E09F3F19F403C0BB
:1044900081E001C080E080FD19C0CE010E94E20AE7
:1044A00081110CC00E944728882381F08A818823CB
:1044B00069F082E0DF91CF910C94E628CE010E9452
:1044C0002122CE01DF91CF910C94BD0ADF91CF91D3
:1044D00008950E946E280E947E280E949C2880E0F9
:1044E00090E00E943F1E80E090E00C94551E809169
:1044F0000001909101010E94EE290C9469220E9412
:104500005E280C947722E92FE295EF704E2F50E051
:10451000FA013297EE30F105B0F4EA59FF4F0C94EE
:104520000533803F91F018F4883E68F40EC0843F54
:1045300051F40BC0883E48F0813F29F406C093FB3C
:10454000882780F9089580E0089581E008950E9409
:104550000F280E9483220895CF93DF9300D000D0CC
:104560001F92CDB7DEB70F900F900F900F900F9066
:10457000DF91CF910895CF93DF9300D000D000D08A
:10458000CDB7DEB726960FB6F894DEBF0FBECDBF0F
:10459000DF91CF9108951F93CF93DF93C09158037C
:1045A00016E080915903C81799F0D0E01C9FF001E4
:1045B0001D9FF00D1124E65AFC4F4081518162810C
:1045C0007381848195810E94BB222196C770E9CFB7
:1045D000DF91CF911F91089540918A0350918B03F1
:1045E00060918C0370918D0380918E0390918F0365
:1045F0000C94BB220F931F93CF93DF9380918F0373
:1046000082958F7009F05DC080918C03882309F436
:1046100058C0809158031091590360918A0370919A
:104620008B03C0918D03D0918E0391E06F3F09F011
:1046300090E0292F06E0811709F443C0209721F06C
:104640007F3F21F030E003C031E001C0322F90E025
:1046500030FD34C0089FF001099FF00D1124DF01E7
:10466000A65ABC4F11963C911197371327C03C9125
:10467000361324C012963C91129731111FC0139625
:104680004D915C9114974C1B5D0B483C5105B0F467
:1046900080918F038F70806180938F03E15AFC4F6C
:1046A00080818F70806180838AE893E00E94392244
:1046B000DF91CF911F910F910C94CB2201968770BF
:1046C000BACFDF91CF911F910F9108959F92AF9232
:1046D000BF92CF92DF92EF92FF920F931F93CF93EF
:1046E000DF93CDB7DEB761970FB6F894DEBF0FBE8C
:1046F000CDBF8C0185E0F801DE011D9601900D9281
:104700008A95E1F7F80140815181E28090918A0316
:1047100060918B0320918D0330918E03211531051B
:1047200031F06F3F31F481E09F3F19F403C081E025
:1047300001C080E0F82FF1709F2E80FD46C1F80186
:10474000A380B4808AE8C82E83E0D82EF0908C0332
:10475000F501E21BF30BFF2009F4DFC080918F030A
:10476000E83CF10508F09BC0282F207F09F052C0DB
:10477000561313C0491311C0FE2CE1100EC08F70E8
:10478000806180938F030E94EC22C6010E9439222F
:1047900080918F03F801858358C1AB2831F05F3FCA
:1047A00031F481E04F3F19F403C081E001C080E0A3
:1047B00080FD03C081E08E2502C080E090E0F82FEC
:1047C000F170FF2E80FF1CC0809158032091590387
:1047D00036E0821709F417C190E0389FF001399F45
:1047E000F00D1124E65AFC4F6181561306C060811A
:1047F000461303C06281E61203C001968770E9CFB9
:10480000FE2CEE2009F421C180918F0381608093FA
:104810008F035AC0561306C0491304C0E11002C0EA
:10482000F8019FC04D875E878D859E850E94A722D7
:10483000882379F1EE2069F120918F03822F8295F0
:104840008F7090E0029774F080918A0390918B03AF
:1048500098878F831986BB86AA862C87CE010796F8
:104860000E94392286E0F801AAE8B3E001900D9297
:104870008A95E1F70E94FA220E94EC220DC0561799
:1048800029F14D875E878D859E850E94A722811123
:104890002CC0C8010E943922FF24F394D6C0282FCF
:1048A000207F69F77A2DB98AA88A6E2D89890E949E
:1048B000AC228AE893E00E94392286E0F601119248
:1048C0008A95E9F70E94EC22F12CBFC04913D9CF99
:1048D000E110D7CFF8018583C8010E94392286E014
:1048E000F60111928A95E9F7B0C0EE2091F220917D
:1048F0008F03822F82958F7090E002970CF4B2CFD5
:1049000080918A0390918B039A8389831B82BD8255
:10491000AC822E83CE010196A3CFE83CF10508F0CE
:1049200047C0FE2CEE2009F4B4CF561330C0491313
:104930002EC020918F0320FD21C0822F82958F7081
:10494000482F50E041155105C9F0F80125834F303B
:10495000510541F08F5F982F9295907F822F8F7035
:10496000892B8583C8010E94392286E0F801AAE8D4
:10497000B3E001900D928A95E1F742C086E0F8011C
:10498000AAE8B3E001900D928A95E1F75EC04D87E9
:104990005E878D859E850E94A722811163CF8091BD
:1049A0008F03816080938F03C8010E9439224DC01C
:1049B0007A2DB98AA88A6E2D89890E94AC2286E058
:1049C000F60111928A95E9F71BC0EE2009F461CF38
:1049D0004D875E878D859E850E94A722F82E8823AD
:1049E00009F457CF86E0F801AAE8B3E001900D92F0
:1049F0008A95E1F78AE893E00E946B1F0E94FA22F1
:104A00000E94EC2222C04D875E878D859E850E9484
:104A10000F28292F22952F70223028F49F7039F00B
:104A2000811105C00BC0243028F49F7049F4805ECA
:104A3000883020F0C8010E9439229F2CF92C05C033
:104A4000F8019581907F99F7F9CF8F2D61960FB678
:104A5000F894DEBF0FBECDBFDF91CF911F910F91B4
:104A6000FF90EF90DF90CF90BF90AF909F90089510
:104A700088EC90E008951F93CF93DF93CDB7DEB716
:104A80002C970FB6F894DEBF0FBECDBF4F8358876B
:104A900069877A878B879C87CE0107960E94662359
:104AA0008823D1F09F8188852A853B85232B31F08F
:104AB0008F3F31F481E09F3F19F403C081E001C0D2
:104AC00080E080FD47C04F81588569857A858B8558
:104AD0009C850E94BB223EC086E0FE013796DE0127
:104AE000119601900D928A95E1F7FF81E8856A851C
:104AF0007B856115710531F0EF3F31F481E0FF3FB7
:104B000019F403C081E001C080E080FD23C0209142
:104B1000590330E0C90101968770992740915803E5
:104B200050E084179507F1F1F983EA837D836C8364
:104B300096E0929FD001939FB00D1124A65ABC4FCE
:104B4000FE01319601900D929A95E1F780935903F9
:104B50000E94CB2216E08091580390915903891747
:104B600071F1189FC0011124865A9C4F0E94662340
:104B7000882329F1E09158031E9FF0011124E65A81
:104B8000FC4F4081518162817381848195810E94B3
:104B9000BB228091580390E00196877099278093FB
:104BA0005803D9CF0E947F221092590310925803C4
:104BB000EAE8F3E086E0DF011D928A95E9F72C969A
:104BC0000FB6F894DEBF0FBECDBFDF91CF911F911E
:104BD0000895EF92FF920F931F93CF93DF938C0171
:104BE000892B09F46CC0F12CEE24E394E8012196A2
:104BF000F8018491843740F4843008F051C081304A
:104C000081F0823019F15BC0853709F444C0A8F106
:104C10009CE7980F903708F052C08F770E94BF1F13
:104C200041C00E5F1F4FFE01849190E2980F9830B3
:104C300050F48770FE2D01C0FF0F8A95EAF78F2F81
:104C40000E94712814C00E94711F2DC00E5F1F4F5B
:104C5000FE01849190E2980F983060F48770FE2DE9
:104C600001C0FF0F8A95EAF78F2F0E9477280E94D4
:104C70009C2819C00E94BF1F16C00E5F1F4FFE0167
:104C8000C491CC2381F08FE99FE00197F1F700C038
:104C90000000C150F6CF0E5F1F4FFE01F49003C01D
:104CA0000E94711F8E018F2D882309F49FCFEFE999
:104CB000FFE03197F1F700C000008150F5CFDF91A0
:104CC000CF911F910F91FF90EF900895089508954F
:104CD0000C9467260C9468260E946A26609334041C
:104CE0007093350480933604909337040C946922B2
:104CF0000C946C260F931F9300913404109135048B
:104D00002091360430913704602B712B822B932B2A
:104D10001F910F910C946C260F931F9300913404F4
:104D200010913504209136043091370460237123AB
:104D3000822393231F910F910C946C260F931F9342
:104D400000913404109135042091360430913704D9
:104D500060277127822793271F910F910C946C264F
:104D60000C9467260E94B02660933004709331043F
:104D700080933204909333040C94692260E070E0D5
:104D8000CB010C94B2260F931F9341E050E060E0FA
:104D900070E08A019B0104C0000F111F221F331F06
:104DA0008A95D2F7C901B8011F910F910C94B226D0
:104DB0000F931F9341E050E060E070E004C0440FA7
:104DC000551F661F771F8A95D2F780913004909106
:104DD0003104A0913204B09133048A019B01082B65
:104DE000192B2A2B3B2BC901B8011F910F910C9451
:104DF000B2260F931F9341E050E060E070E004C0E2
:104E0000440F551F661F771F8A95D2F7409550951E
:104E1000609570958091300490913104A091320496
:104E2000B09133048A019B01082319232A233B23D1
:104E3000C901B8011F910F910C94B2260F931F93D3
:104E400041E050E060E070E004C0440F551F661F71
:104E5000771F8A95D2F78091300490913104A09108
:104E60003204B09133048A019B01082719272A27AD
:104E70003B27C901B8011F910F910C94B2260F93E3
:104E80001F9300913004109131042091320430912D
:104E90003304602B712B822B932B1F910F910C9459
:104EA000B2260F931F93009130041091310420918A
:104EB00032043091330460237123822393231F91A2
:104EC0000F910C94B2260F931F9300913004109110
:104ED00031042091320430913304602771278227F6
:104EE00093271F910F910C94B226089520E1929F71
:104EF000800D1124E82FE695E695E695877051E040
:104F000001C0550F8A95EAF785E0E89FF00111246A
:104F1000E057FC4F20E030E070E04081CB01022EF2
:104F200002C0969587950A94E2F78170819584274F
:104F30008523842781932F5F3F4F2530310569F703
:104F4000089520E1929F800D1124682F6695669543
:104F50006695982F977085E0689FB001112440E016
:104F600050E080E0FB01E40FF51FE057FC4F20818B
:104F700030E0092E02C0369527950A94E2F7217099
:104F80003327042E01C0220F0A94EAF7822B4F5FC9
:104F90005F4F4530510531F70895BF92CF92DF92B0
:104FA000EF92FF920F931F93CF93DF938C01C090EA
:104FB0003004D0903104E0903204F09033048091BA
:104FC000340490913504A0913604B0913704C82A76
:104FD000D92AEA2AFB2ACFE1D0E0D701C6010C2E5C
:104FE00004C0B695A795979587950A94D2F780FD4A
:104FF00004C0219790F7B12C07C0BC2EB8018C2FAC
:105000000E94430B0197A9F38B2DDF91CF911F9144
:105010000F91FF90EF90DF90CF90BF900895CF93C6
:10502000DF93EC010E94CD27BE010E94430BDF916C
:10503000CF9108951F93CF93DF93EB019091570386
:10504000992321F0CB010E940F2813C0882349F037
:10505000CB010E94CD27182F682FCE010E94762702
:1050600004C0CB010E94A127182FBE01812F0E94EE
:10507000430BDF91CF911F9108958091380485955E
:10508000859585950895809138048770089590914D
:105090003804977081E009F480E008958091440419
:1050A000089590914404892B809344040895809539
:1050B00090914404892380934404089510924404F9
:1050C000089590914304892B80934304089580951B
:1050D00090914304892380934304089510924304DC
:1050E000089590914204892B8093420408958095FD
:1050F00090914204892380934204089510924204BF
:10510000089580913904089508950C9484280C948E
:10511000852890913904981721F0809339040C94D4
:105120008728089580913904882329F01092390442
:1051300080E00C9487280895E0910001F09101012E
:10514000809144048083E0910001F09101019081FD
:1051500080914304892B8083E0910001F09101014B
:10516000908180914204892B808380913904882327
:1051700081F0E0910001F09101019081892B808301
:1051800080910001909101010E94A82981110E9443
:10519000922880910001909101010C94341E0C948E
:1051A000842898E0899F90011124262B20933804AD
:1051B0000E94D826809138048595859585950C9414
:1051C000CF281092380480E00C94CF282091380426
:1051D0008095822380933804982F977079F430E07B
:1051E000482F082E000C550B2417350739F08595EC
:1051F000859585950E94F9260C94E128089580E014
:10520000089580E090E00E94133321E08C3E9E4F91
:1052100009F020E0822F089582E090E00C940B3397
:1052200083E090E00C940B33CF9384E090E00E94F5
:105230000B33C82F81E290E00E940B332C2F30E01B
:10524000A901582BCA01CF910895CF93C92F682F78
:1052500084E090E00E9419336C2F81E290E0CF91BE
:105260000C941933AB01BC018FE090E00C942B330C
:10527000AB01BC0183E190E00C942B3360E070E063
:10528000CB010C94382960E070E0CB010E943229F8
:105290000C943E296CEE7EEF80E090E00E94373364
:1052A00060E082E090E00E94193360E083E090E0EB
:1052B0000E9419331092340410923504109236046F
:1052C0001092370460E084E090E00E94193360E0BF
:1052D00081E290E00E94193360E085E090E00E9456
:1052E000193360E086E090E00E9419336FEF87E0A9
:1052F00090E00E94193340E050E0BA0188E090E06D
:105300000E942B3360E08DE090E00E94193340E072
:1053100050E0BA0188E190E00E942B3360E087E121
:1053200090E00E94193340E050E0BA018CE190E037
:105330000E942B3360E080E290E00E9419330C94CD
:1053400043290C944A29682F8EE090E00C9419337D
:10535000FC01329697E080E0915029F021912223C0
:10536000D9F38F5FF9CF0895662349F0FC01329697
:1053700008962191621729F0E817F907D1F780E024
:10538000089581E008959C01FC0132969FEF80E032
:105390004191461789F09F3F19F4411101C0982FA0
:1053A0008F5F8630A9F79F3F39F0F901E90FF11DB2
:1053B00097FDFA956283089508959C012A5F3F4FF7
:1053C000FC014281461301C01282019682179307A5
:1053D000B9F708950C94C3290C94DD29029626E0B0
:1053E000FC0111922A95E9F7089508950C94F52986
:1053F0000C94F529CF930E94F8290E9403070E947C
:10540000F629C0E08C2F0E94BB07892B29F4CF5FBF
:10541000C031C1F780E001C081E0CF9108950C94C4
:10542000F5290C940F2A0E94112A80915B04843084
:1054300049F11092460420E488E190E00FB6F89418
:10544000A895809360000FBE2093600080E00E94CA
:10545000E9070E94112A83B7817F846083BF83B7E5
:10546000816083BF7894889583B78E7F83BF0FB6A2
:10547000F894A895809160008861809360001092F4
:1054800060000FBE08950C94F5290E947F220E94AF
:10549000281E0E94E9070C94432A1F920F920FB610
:1054A0000F9211248F939F93AF93BF9380914604E3
:1054B000811113C08091510490915204A091530422
:1054C000B09154044196A11DB11D80935104909355
:1054D0005204A0935304B0935404BF91AF919F9191
:1054E0008F910F900FBE0F901F90189582E084BD92
:1054F00093E095BD9AEF97BD80936E0008952FB706
:10550000F8948091510490915204A0915304B09169
:1055100054042FBF08952FB7F894609151047091EF
:10552000520480915304909154042FBF08959C011C
:105530004FB7F8948091510490915204A091530474
:10554000B09154044FBF821B930B089578941F921F
:105550000F920FB60F9211248F939F93AF93BF9327
:105560008091510490915204A0915304B09154043D
:105570000196A11DB11D8093510490935204A093F4
:105580005304B0935404BF91AF919F918F910F90AA
:105590000FBE0F901F90189581E08093E00080E28D
:1055A0008093D8001092C9008FE19EE40197F1F733
:1055B00000C0000087E090EBDC01809364049093CE
:1055C0006504A0936604B09367049CE088E10FB67D
:1055D000F894A895809360000FBE90936000FFCF71
:1055E0000E940129811102C00E94A1290E940C2958
:1055F000809345040E941429909356048093550487
:105600000E941029682F70E080E090E00E947826C8
:105610006091300470913104809132049091330490
:105620000C94B02680914F0408950895CF93DF9392
:1056300000D01F92CDB7DEB790915B04943019F57E
:1056400089837B836A8382E08093E9008FEF909166
:10565000E800815095FD06C095ED9A95F1F70000A0
:105660008111F5CF8091E80085FF0DC040E050E04A
:1056700063E070E0CE0101960E940F2D8091E8005A
:105680008E778093E8000F900F900F90DF91CF916D
:105690000895BC0184E00C94162BBC0183E00C94AB
:1056A000162BCF93DF9321E02093E9002FEF309169
:1056B000E800215035FD06C035ED3A95F1F70000C0
:1056C0002111F5CF2091E80025FF14C0EC0140E046
:1056D00050E068E070E00E940F2D8091E8008E7726
:1056E0008093E80088E0FE01A7E4B4E001900D9209
:1056F0008A95E1F7DF91CF91089580915A04811145
:1057000009C00E94A02E0E94FD2E8091E2008460BC
:105710008093E200089510925A0408950895089520
:105720000C94452A42E061EC81E00E94192E42E28D
:1057300061EC82E00C94192E80915D04833009F4B1
:1057400060C030F4813071F0823009F499C008955E
:105750008A3009F485C08B3009F46BC0893009F0B8
:10576000A7C020C080915C04813A09F0A1C080915B
:10577000E800877F8093E800809160049091610445
:10578000892B21F468E087E494E003C060E080E0C6
:1057900090E070E00E945A2D8091E8008B77809312
:1057A000E800089580915C04813209F081C0809105
:1057B000600490916104029708F07AC08091E8003B
:1057C000877F8093E8008091E80082FD05C080918A
:1057D0005B048111F8CF6CC02091F3008091F2003E
:1057E00090E0922B029729F48091F1008B7F813019
:1057F00021F48091F10080934F048091E8008B7731
:1058000053C080915C04813A09F052C080916004D9
:1058100090916104892B09F04BC08091E800877F4B
:105820008093E8008091E80080FFFCCF80910C011C
:1058300036C080915C048132D9F5809160049091EA
:105840006104892BA9F58091E800877F8093E800A7
:105850000E944E2E80915E0480930C010C947F2256
:1058600080915C04813221F58091E800877F8093EC
:10587000E8000E944E2E80915F04809350040895AA
:1058800080915C04813AA1F48091E800877F809345
:10589000E8008091E80080FFFCCF80915004809365
:1058A000F1008091E8008E778093E8000C944E2EF2
:1058B000089584B7877F84BF0FB6F894A895809128
:1058C0006000886180936000109260000FBE90E0DD
:1058D00080E80FB6F89480936100909361000FBE4A
:1058E0000E947B1E0E94A02E0E94FD2E8091E2004D
:1058F00084608093E20078940E9492310E94851E19
:1059000082E091E00E94231E80915B04853069F45F
:105910000E94132A809159048823B1F30E94FA2926
:10592000882391F30E94F92CEFCF0E948D1EECCFBB
:105930000C949A2C292F332723303105C9F060F4B9
:105940002130310581F02230310509F04AC08BE366
:1059500090E02EE337E049C02132310511F12232C7
:10596000310579F13EC082E190E029E737E03DC0A2
:1059700099278130910561F040F08230910559F00E
:10598000039779F5ECEFF6E008C0EAE3F7E005C02D
:10599000E0E3F7E002C0E2E0F7E0849190E09F01ED
:1059A00024C06115710541F061307105D1F489E0C1
:1059B00090E029E637E019C089E090E020E537E083
:1059C00014C06115710541F06130710551F482E335
:1059D00090E02BE837E009C080E490E02DEB37E061
:1059E00004C080E090E020E030E0FA0131832083C1
:1059F000089580E189BD82E189BD09B400FEFDCF33
:105A00008091D8008F7D8093D8008091E0008260E3
:105A10008093E0008091E00081FDFCCF0895CF925B
:105A2000DF92EF92FF920F931F93CF93DF93EC01DE
:105A30008B017A010E946D2E811133C0E114F104B3
:105A400039F0F70180819181081B190BC80FD91F0C
:105A5000C12CD12C0115110519F18091E80085FDAB
:105A600016C08091E8008E778093E800E114F1047D
:105A700049F0F70180819181C80ED91ED182C08280
:105A800085E00FC00E946D2E882321F30AC0899102
:105A90008093F10001501109FFEFCF1ADF0ADACF2E
:105AA00080E0DF91CF911F910F91FF90EF90DF90F9
:105AB000CF90089520916204309163042617370730
:105AC00048F06115710539F42091E8002E77209394
:105AD000E80001C0B901FC0120E06115710579F110
